:020000040800F2
:100000000050002065070008090700080F070008D6
:10001000150700081B070008210700080000000062
:10002000000000000000000000000000270700089A
:1000300033070008000000003F0700084B070008D6
:10004000AD070008AD070008AD070008AD070008C0
:10005000AD070008AD070008AD070008AD070008B0
:10006000AD070008AD070008AD070008AD070008A0
:10007000AD070008AD070008AD070008AD07000890
:10008000AD070008AD070008AD070008AD07000880
:10009000AD070008AD070008AD070008AD07000870
:1000A000AD070008AD070008AD070008AD07000860
:1000B000AD070008AD070008AD070008AD07000850
:1000C000AD070008AD070008AD070008AD07000840
:1000D000AD070008AD070008AD070008AD07000830
:1000E000AD070008AD070008AD07000800000000DC
:1000F0000000000000000000000000000000000000
:0C01000000000000000000005FF808F1A3
:10010C0010B5054C237833B9044B13B10448AFF345
:10011C0000800123237010BD10000020000000009F
:10012C007021000808B5034B1BB103490348AFF31A
:10013C00008008BD000000001400002070210008A1
:10014C0080B485B000AF0346FB710023FB8106E051
:10015C00FB890849FA79CA54FB890133FB81FB8975
:10016C00B3F5806FF4D300BF00BF1437BD4680BC1D
:10017C00704700BF2C00002080B586B002AF03464C
:10018C00FB7100233B73FB797B73074B186807F1FA
:10019C000C020A2300930223782100F035FF00BFE4
:1001AC001037BD4680BD00BF2C04002080B586B042
:1001BC0002AF0346FB7140233B73FB797B73074B08
:1001CC00186807F10C020A2300930223782100F02F
:1001DC001BFF00BF1037BD4680BD00BF2C040020A4
:1001EC0080B582B000AF7860304A7B6813602F4BCB
:1001FC00186864230A22782101F004F80346002BC6
:10020C0001D000234EE0AE20FFF7B6FFD520FFF75C
:10021C00B3FF8020FFF7B0FFA820FFF7ADFF3F2012
:10022C00FFF7AAFFD320FFF7A7FF0020FFF7A4FFDB
:10023C004020FFF7A1FF8D20FFF79EFF1420FFF752
:10024C009BFF2020FFF798FF0020FFF795FFA120D0
:10025C00FFF792FFC820FFF78FFFDA20FFF78CFF24
:10026C001220FFF789FF8120FFF786FFFF20FFF7A1
:10027C0083FFD920FFF780FFF120FFF77DFFDB2004
:10028C00FFF77AFF4020FFF777FFA420FFF774FFFA
:10029C00A620FFF771FFAF20FFF76EFF002000F0E4
:1002AC0007F8012318460837BD4680BD2C040020F2
:1002BC0080B582B000AF0346FB71FB79002B03D0F5
:1002CC00FF20FFF73DFF02E00020FFF739FF00BFE2
:1002DC000837BD4680BD80B584B000AF7860002380
:1002EC00FB732EE00023BB7324E0FB7B1B01BA7B6A
:1002FC00D208D2B213441A467B6813441B787B7322
:10030C007A7BBB7B03F00703802141FA03F3134094
:10031C00002B06D0F97BBB7B0122184600F01AF8A3
:10032C0005E0F97BBB7B0022184600F013F8BB7B81
:10033C000133BB7397F90E30002BD6DAFB7B0133FC
:10034C00FB73FB7B3F2BCDD900BF00BF1037BD46E5
:10035C0080BD000080B483B000AF0346FB710B4638
:10036C00BB7113467B7197F90730002B3DDBBB79D2
:10037C003F2B3AD87B79002B1AD0FA79BB79DB0862
:10038C00D8B20346DB0113441A4AD35C5AB2BB7988
:10039C0003F00703012101FA03F35BB2134359B2D3
:1003AC00FA790346DB011344C9B2124AD1541DE059
:1003BC00FA79BB79DB08D8B20346DB0113440D4A4A
:1003CC00D35C5AB2BB7903F00703012101FA03F3A2
:1003DC005BB2DB435BB2134059B2FA790346DB01E3
:1003EC001344C9B2034AD15400E000BF0C37BD46D8
:1003FC0080BC70472C00002080B582B000AF002379
:10040C00FB7132E01D4B1B7803F00F03DBB2184677
:10041C00FFF7B2FE194B1B781B09DBB243F010033C
:10042C00DBB21846FFF7A8FEFB7963F04F03DBB293
:10043C001846FFF7A1FE0023BB800FE0FB79DA0121
:10044C00B7F9043013440E4AD35C1846FFF7AEFEDE
:10045C00B7F904309BB201339BB2BB80B7F90430BF
:10046C007F2BEBDDFB790133FB71FB79072BC9D9B2
:10047C0000BF00BF0837BD4680BD00BF0000002094
:10048C002C00002080B485B000AF144B9B69134A3C
:10049C0043F020039361114B9B6903F02003FB6035
:1004AC00FB680E4B9B690D4A43F0040393610B4BA5
:1004BC009B6903F00403BB60BB68084B9B69074A4C
:1004CC0043F008039361054B9B6903F008037B60C1
:1004DC007B6800BF1437BD4680BC704700100240DB
:1004EC0080B500AF124B134A1A60114B124A5A6076
:1004FC000F4B00229A600E4B0022DA600C4B4FF42B
:10050C0080421A610A4B00225A61094B00229A61FF
:10051C00074B0022DA61064B00221A62044800F0F5
:10052C002FFC0346002B01D000F0B1F800BF80BDBA
:10053C003004002000540040801A060080B588B0BA
:10054C0000AF786007F1100300221A605A609A60BD
:10055C00DA607B681B68154A934223D1144B9B6964
:10056C00134A43F008039361114B9B6903F0080392
:10057C00FB60FB68C0233B6112237B610323FB619F
:10058C0007F1100319460B4800F076FA084BDB69AB
:10059C00074A43F40013D361054BDB6903F40013E2
:1005AC00BB60BB6800BF2037BD4680BD0054004017
:1005BC0000100240000C014080B500AF00F0F2F8D2
:1005CC0000F020F8FFF75EFFFFF78AFF0A48FFF7FD
:1005DC0007FE0A48FFF77FFEFFF70EFF4FF4FA7095
:1005EC0000F042F90648FFF776FEFFF705FF4FF4DF
:1005FC00FA7000F039F9ECE730040020882100088B
:10060C008825000880B590B000AF07F118032822A8
:10061C000021184601F09EFD3B1D00221A605A6015
:10062C009A60DA601A610123BB614FF48033FB617D
:10063C0000233B620123BB6202237B634FF48033B4
:10064C00BB634FF4E013FB6307F11803184601F08A
:10065C0061F90346002B01D000F019F80F237B60E1
:10066C000223BB600023FB604FF480633B610023DB
:10067C007B613B1D0221184601F0CEFB0346002B8B
:10068C0001D000F004F800BF4037BD4680BD80B4F7
:10069C0000AF72B600BFFEE780B485B000AF154B5B
:1006AC009B69144A43F001039361124B9B6903F05D
:1006BC000103BB60BB680F4BDB690E4A43F08053F0
:1006CC00D3610C4BDB6903F080537B607B680A4B76
:1006DC005B68FB60FB6823F0E063FB60FB6843F046
:1006EC000073FB60044AFB68536000BF1437BD46BF
:1006FC0080BC7047001002400000014080B400AF85
:10070C00FEE780B400AFFEE780B400AFFEE780B434
:10071C0000AFFEE780B400AFFEE780B400AF00BFCF
:10072C00BD4680BC704780B400AF00BFBD4680BCE6
:10073C00704780B400AF00BFBD4680BC704780B529
:10074C0000AF00F075F800BF80BD80B400AF00BFF3
:10075C00BD4680BC70470000FFF7F7FF0B480C4903
:10076C000C4A002302E0D458C4500433C4188C4201
:10077C00F9D3094A094C002301E013600432A24268
:10078C00FBD301F0C3FCFFF717FF704700000020FC
:10079C0010000020BC290008100000208804002054
:1007AC00FEE7000080B500AF084B1B68074A43F01A
:1007BC0010031360032000F02BF90F2000F008F851
:1007CC00FFF76AFF0023184680BD00BF00200240DF
:1007DC0080B582B000AF7860124B1A68124B1B7850
:1007EC0019464FF47A73B3FBF1F3B2FBF3F31846EB
:1007FC0000F035F90346002B01D001230EE07B6895
:10080C000F2B0AD8002279684FF0FF3000F00BF95B
:10081C00064A7B681360002300E001231846083762
:10082C00BD4680BD040000200C0000200800002004
:10083C0080B400AF054B1B781A46054B1B6813445C
:10084C00034A136000BFBD4680BC70470C000020FB
:10085C008404002080B400AF024B1B681846BD46D0
:10086C0080BC70478404002080B584B000AF7860F1
:10087C00FFF7F0FFB8607B68FB60FB68B3F1FF3FEC
:10088C0005D00A4B1B781A46FB681344FB6000BF6B
:10089C00FFF7E0FF0246BB68D31AFA689A42F7D812
:1008AC0000BF00BF1037BD4680BD00BF0C0000204C
:1008BC0080B485B000AF78607B6803F00703FB6001
:1008CC000C4BDB68BB60BA684FF6FF031340BB6090
:1008DC00FB681A02BB68134343F0BF6343F4003355
:1008EC00BB60044ABB68D36000BF1437BD4680BCF4
:1008FC00704700BF00ED00E080B400AF044BDB6834
:10090C001B0A03F007031846BD4680BC704700BFA6
:10091C0000ED00E080B483B000AF03463960FB719A
:10092C0097F90730002B0ADB3B68DAB20C4997F9D0
:10093C0007301201D2B20B4483F800230AE03B6863
:10094C00DAB20849FB7903F00F03043B1201D2B26F
:10095C000B441A7600BF0C37BD4680BC704700BFF5
:10096C0000E100E000ED00E080B489B000AFF86079
:10097C00B9607A60FB6803F00703FB61FB69C3F1A4
:10098C000703042B28BF0423BB61FB690433062B2C
:10099C0002D9FB69033B00E000237B614FF0FF327F
:1009AC00BB6902FA03F3DA43BB681A407B699A40CD
:1009BC004FF0FF317B6901FA03F3D9437B680B409D
:1009CC00134318462437BD4680BC704780B582B0AF
:1009DC0000AF78607B68013BB3F1807F01D30123CA
:1009EC000FE00A4A7B68013B53600F214FF0FF3048
:1009FC00FFF790FF054B00229A60044B07221A6008
:100A0C00002318460837BD4680BD00BF10E000E04B
:100A1C0080B582B000AF78607868FFF749FF00BFFF
:100A2C000837BD4680BD80B586B000AF0346B960BF
:100A3C007A60FB7300237B61FFF75EFF78617A6855
:100A4C00B9687869FFF790FF024697F90F301146A5
:100A5C001846FFF75FFF00BF1837BD4680BD80B555
:100A6C0082B000AF78607868FFF7B0FF0346184695
:100A7C000837BD4680BD000080B48BB000AF7860F5
:100A8C00396000237B6200233B6269E101227B6AAF
:100A9C0002FA03F3FB613B681B68FA691340BB6104
:100AAC00BA69FB699A4240F058813B685B689A4A84
:100ABC0093425ED0984A934275D8984A934258D044
:100ACC00964A93426FD8964A934252D0944A934294
:100ADC0069D8944A93424CD0924A934263D8924A32
:100AEC00934246D0904A93425DD8122B2AD8122BAF
:100AFC0059D801A252F823F07F0B0008590B0008BB
:100B0C006B0B0008AD0B0008B30B0008B30B00080F
:100B1C00B30B0008B30B0008B30B0008B30B0008B1
:100B2C00B30B0008B30B0008B30B0008B30B0008A1
:100B3C00B30B0008B30B0008B30B0008610B0008E3
:100B4C00750B0008794A934213D02CE03B68DB68A4
:100B5C003B6229E03B68DB6804333B6224E03B6882
:100B6C00DB6808333B621FE03B68DB680C333B629D
:100B7C001AE03B689B68002B02D104233B6213E014
:100B8C003B689B68012B05D108233B627B68FA69A3
:100B9C001A6109E008233B627B68FA695A6103E039
:100BAC0000233B6200E000BFBB69FF2B01D87B68D0
:100BBC0001E07B6804337B61BB69FF2B02D87B6A45
:100BCC009B0002E07B6A083B9B003B617B691A68D7
:100BDC000F213B6901FA03F3DB431A40396A3B6985
:100BEC0001FA03F31A437B691A603B685B6803F0F4
:100BFC008053002B00F0B1804D4B9B694C4A43F065
:100C0C00010393614A4B9B6903F00103BB60BB6812
:100C1C00484A7B6A9B08023352F82330FB607B6A9C
:100C2C0003F003039B000F2202FA03F3DB43FA6881
:100C3C001340FB607B68404A934213D07B683F4A69
:100C4C0093420DD07B683E4A934207D07B683D4A65
:100C5C00934201D1032306E0042304E0022302E0C3
:100C6C00012300E000237A6A02F003029200934011
:100C7C00FA681343FB602F497B6A9B080233FA68BE
:100C8C0041F823203B685B6803F48013002B06D0EB
:100C9C002D4B9A682C49BB6913438B6006E02A4B99
:100CAC009A68BB69DB43284913408B603B685B68DF
:100CBC0003F40013002B06D0234BDA682249BB69DE
:100CCC001343CB6006E0204BDA68BB69DB431E495B
:100CDC001340CB603B685B6803F40033002B06D0F9
:100CEC00194B5A681849BB6913434B6006E0164B05
:100CFC005A68BB69DB43144913404B603B685B6823
:100D0C0003F48033002B21D00F4B1A680E49BB69BA
:100D1C0013430B6021E000BF0000321000003110C3
:100D2C000000221000002110000012100000111011
:100D3C00001002400000014000080140000C01407E
:100D4C000010014000140140000401400B4B1A68D4
:100D5C00BB69DB43094913400B607B6A01337B623F
:100D6C003B681A687B6A22FA03F3002B7FF48EAE81
:100D7C0000BF00BF2C37BD4680BC7047000401404B
:100D8C0080B584B000AF78607B68002B01D1012363
:100D9C002BE17B6893F83D30DBB2002B06D17B68EE
:100DAC00002283F83C207868FFF7C8FB7B6824227C
:100DBC0083F83D207B681B681A687B681B6822F0EF
:100DCC0001021A607B681B681A687B681B6842F416
:100DDC0000421A607B681B681A687B681B6822F4E7
:100DEC0000421A6001F060F9F8607B685B68814A28
:100DFC00934207D8FB68804A934294BF0123002397
:100E0C00DBB206E0FB687D4A934294BF01230023CA
:100E1C00DBB2002B01D00123E7E0FB68784AA2FB90
:100E2C0003239B0CBB607B681B685B6823F03F0152
:100E3C007B681B68BA680A435A607B681B681B6A2C
:100E4C0023F03F017B685B686A4A934202D8BB6817
:100E5C00013309E0BB684FF4967202FB03F3694A55
:100E6C00A2FB03239B0901337A6812680B431362BC
:100E7C007B681B68DB6923F44F4222F0FF027B681E
:100E8C005B685C498B4219D8FB68591E7B685B68B0
:100E9C005B00B1FBF3F3591C40F6FC730B40002BC9
:100EAC000AD0FB68591E7B685B685B00B1FBF3F3EF
:100EBC000133C3F30B0351E004234FE07B689B68C1
:100ECC00002B11D1FB68581E7B6859680B465B00E0
:100EDC000B44B0FBF3F30133C3F30B03002B0CBF38
:100EEC0001230023DBB212E0FB68581E7B685968B3
:100EFC000B469B000B4499000B44B0FBF3F30133FE
:100F0C00C3F30B03002B0CBF01230023DBB2002B1C
:100F1C0001D0012322E07B689B68002B0ED1FB687B
:100F2C00581E7B6859680B465B000B44B0FBF3F30F
:100F3C000133C3F30B0343F400430FE0FB68581E6B
:100F4C007B6859680B469B000B4499000B44B0FB23
:100F5C00F3F30133C3F30B0343F44043796809689B
:100F6C001343CB617B681B681B6823F0C0017B6853
:100F7C00DA697B681B6A1A437B681B680A431A6030
:100F8C007B681B689B6823F4034323F0FF037A6898
:100F9C0011697A68D26811437A6812680B439360BE
:100FAC007B681B68DB6823F0FF017B685A697B68F0
:100FBC009B691A437B681B680A43DA607B681B6871
:100FCC001A687B681B6842F001021A607B68002279
:100FDC001A647B68202283F83D207B6800221A6308
:100FEC007B68002283F83E20002318461037BD464C
:100FFC0080BD00BFA08601007F841E00FF083D005D
:10100C0083DE1B43D34D621080B588B002AFF8600D
:10101C007A601A460B467B8113463B81FFF71AFC1C
:10102C007861FB6893F83D30DBB2202B40F0E08018
:10103C007B690093192301227049F86800F092FA39
:10104C000346002B01D00223D3E0FB6893F83C301D
:10105C00012B01D10223CCE0FB68012283F83C2058
:10106C00FB681B681B6803F00103012B07D0FB68AE
:10107C001B681A68FB681B6842F001021A60FB6867
:10108C001B681A68FB681B6822F400621A60FB6814
:10109C00212283F83D20FB68102283F83E20FB6858
:1010AC0000221A64FB687A685A62FB683A895A858E
:1010BC00FB685B8D9AB2FB681A85FB68504ADA6252
:1010CC0079897B693A6AF86800F0CAF90346002B03
:1010DC0001D001238DE000233B61FB681B685B6939
:1010EC003B61FB681B689B693B613B6966E07A6905
:1010FC00396AF86800F050FB0346002B0DD0FB68F2
:10110C001B6C042B07D1FB681B681A68FB681B68F7
:10111C0042F400721A6001236BE0FB685B6A1A7878
:10112C00FB681B681A61FB685B6A5A1CFB685A6295
:10113C00FB685B8D9BB2013B9AB2FB685A85FB68DE
:10114C001B8D013B9AB2FB681A85FB681B685B69B7
:10115C0003F00403042B1BD1FB681B8D002B17D051
:10116C00FB685B6A1A78FB681B681A61FB685B6A30
:10117C005A1CFB685A62FB685B8D9BB2013B9AB2AE
:10118C00FB685A85FB681B8D013B9AB2FB681A857C
:10119C007A69396AF86800F047FB0346002B0DD0DA
:1011AC00FB681B6C042B07D1FB681B681A68FB6877
:1011BC001B6842F400721A6001231AE0FB681B8D55
:1011CC00002B94D1FB681B681A68FB681B6842F4FF
:1011DC0000721A60FB68202283F83D20FB68002215
:1011EC0083F83E20FB68002283F83C20002300E0BB
:1011FC00022318461837BD4680BD00BF0200100000
:10120C000000FFFF80B58AB002AFF8607A603B60E7
:10121C000B467B81FFF71EFBF8610023BB61FB686B
:10122C0093F83D30DBB2202B40F01181FB69009329
:10123C00192301228849F86800F094F90346002B21
:10124C0001D0022304E1FB6893F83C30012B01D15F
:10125C000223FDE0FB68012283F83C20FB681B683D
:10126C001B6803F00103012B07D0FB681B681A688D
:10127C00FB681B6842F001021A60FB681B681A6865
:10128C00FB681B6822F400621A60FB68242283F856
:10129C003D20FB6800221A64FB68704ADA62FB6826
:1012AC001B681A68FB681B6842F480721A60FB6941
:1012BC0000933B6800224FF00111F86800F052F9DE
:1012CC000346002B0DD0FB681B681B6803F480736E
:1012DC00B3F5807F03D1FB684FF400721A640323CB
:1012EC00B6E07B89DBB21A46FB681B6802F0FE0293
:1012FC001A61FFF7AFFAF861FB681B685B6903F0D2
:10130C000203022B0CBF01230023DBB2FB75FB682D
:10131C001B685B6903F48063B3F5806F0CBF01231A
:10132C000023DBB2BB7525E0FFF794FA0246FB699C
:10133C00D31A3A689A4202D33B68002B03D1FB685C
:10134C00A02283F83D20FB681B685B6903F0020355
:10135C00022B0CBF01230023DBB2FB75FB681B685F
:10136C005B6903F48063B3F5806F0CBF012300232A
:10137C00DBB2BB75FB6893F83D30DBB2A02B05D01C
:10138C00FB7D002B02D1BB7D002BCDD0FB68202236
:10139C0083F83D20FB681B685B6903F00203022B9A
:1013AC0029D1FB681B681A68FB681B6842F4007241
:1013BC001A6000233B61FB681B685B693B61FB683F
:1013CC001B689B693B613B69FB69009319230122F4
:1013DC002149F86800F0C6F80346002B01D0012320
:1013EC0036E0FB68202283F83D20FB68002283F85E
:1013FC003C2000232CE0FB681B681A68FB681B6808
:10140C0042F400721A60FB681B686FF480625A61C8
:10141C00FB690093192301220F49F86800F0A2F828
:10142C000346002B01D0012312E0BB690133BB61E1
:10143C00BA697B689A42FFF432AFFB68202283F8CA
:10144C003D20FB68002283F83C20012300E00223AE
:10145C0018462037BD4680BD020010000000FFFF7B
:10146C0080B588B002AFF8607A603B600B467B8138
:10147C00FB68DB6A7B617B69082B06D07B69012BDF
:10148C0003D07B6913F5803F08D1FB681B681A6891
:10149C00FB681B6842F480721A600BE0FB681B6BE4
:1014AC00122B07D1FB681B681A68FB681B6842F497
:1014BC0080721A603B6800937B6800224FF0011128
:1014CC00F86800F04FF80346002B0DD0FB681B6842
:1014DC001B6803F48073B3F5807F03D1FB684FF472
:1014EC0000721A64032335E0FB681B69B3F5804F67
:1014FC0008D17B89DBB21A46FB681B6802F0FE023E
:10150C001A611BE07B89DB11DBB203F00603DBB253
:10151C0063F00F03DAB2FB681B681A613B687A68E8
:10152C000E49F86800F098F80346002B01D001230F
:10153C0010E07B89DAB2FB681B681A613B687A6839
:10154C000749F86800F088F80346002B01D0012306
:10155C0000E0002318461837BD4680BD0800010086
:10156C000200010080B584B000AFF860B9603B6048
:10157C001346FB7148E03B68B3F1FF3F44D0FFF7E3
:10158C0069F90246BB69D31A3A689A4202D33B689E
:10159C00002B39D1BB681B0CDBB2012B0DD1FB68C6
:1015AC001B685B69DA43BB6813409BB2002B0CBF12
:1015BC0001230023DBB21A460CE0FB681B689B6915
:1015CC00DA43BB6813409BB2002B0CBF01230023F2
:1015DC00DBB21A46FB799A4216D1FB6800221A63D9
:1015EC00FB68202283F83D20FB68002283F83E2014
:1015FC00FB681B6C43F02002FB681A64FB6800223A
:10160C0083F83C20012323E0BB681B0CDBB2012BCD
:10161C000DD1FB681B685B69DA43BB6813409BB256
:10162C00002B0CBF01230023DBB21A460CE0FB6835
:10163C001B689B69DA43BB6813409BB2002B0CBF41
:10164C0001230023DBB21A46FB799A4293D0002384
:10165C0018461037BD4680BD80B584B000AFF86029
:10166C00B9607A603B6071E0FB681B685B6903F4EE
:10167C008063B3F5806F23D1FB681B681A68FB6825
:10168C001B6842F400721A60FB681B686FF480627E
:10169C005A61FB6800221A63FB68202283F83D2004
:1016AC00FB68002283F83E20FB681B6C43F00402AD
:1016BC00FB681A64FB68002283F83C20012367E076
:1016CC007B68B3F1FF3F41D0FFF7C4F802463B689B
:1016DC00D31A7A689A4202D37B68002B36D1BB6846
:1016EC001B0CDBB2012B0CD1FB681B685B69DA436A
:1016FC00BB6813409BB2002B14BF01230023DBB249
:10170C000BE0FB681B689B69DA43BB6813409BB218
:10171C00002B14BF01230023DBB2002B16D0FB6877
:10172C0000221A63FB68202283F83D20FB6800220C
:10173C0083F83E20FB681B6C43F02002FB681A64A4
:10174C00FB68002283F83C20012321E0BB681B0CC2
:10175C00DBB2012B0CD1FB681B685B69DA43BB68FD
:10176C0013409BB2002B14BF01230023DBB20BE010
:10177C00FB681B689B69DA43BB6813409BB2002B68
:10178C0014BF01230023DBB2002B7FF46DAF0023C9
:10179C0018461037BD4680BD80B584B000AFF860E8
:1017AC00B9607A6034E0F86800F086F80346002BE4
:1017BC0001D0012334E0BB68B3F1FF3F28D0FFF721
:1017CC0049F802467B68D31ABA689A4202D3BB68BE
:1017DC00002B1DD1FB681B685B6903F08003802B19
:1017EC0016D0FB6800221A63FB68202283F83D2088
:1017FC00FB68002283F83E20FB681B6C43F0200240
:10180C00FB681A64FB68002283F83C20012307E084
:10181C00FB681B685B6903F08003802BC3D100233A
:10182C0018461037BD4680BD80B584B000AFF86057
:10183C00B9607A6034E0F86800F03EF80346002B9B
:10184C0001D0012334E0BB68B3F1FF3F28D0FFF790
:10185C0001F802467B68D31ABA689A4202D3BB6875
:10186C00002B1DD1FB681B685B6903F00403042B80
:10187C0016D0FB6800221A63FB68202283F83D20F7
:10188C00FB68002283F83E20FB681B6C43F02002AF
:10189C00FB681A64FB68002283F83C20012307E0F4
:1018AC00FB681B685B6903F00403042BC3D10023A2
:1018BC0018461037BD4680BD80B483B000AF786049
:1018CC007B681B685B6903F48063B3F5806F1BD185
:1018DC007B681B686FF480625A617B6800221A6314
:1018EC007B68202283F83D207B68002283F83E2011
:1018FC007B681B6C43F004027B681A647B680022D3
:10190C0083F83C20012300E0002318460C37BD4629
:10191C0080BC704780B586B000AF78607B68002BC8
:10192C0001D1012372E27B681B6803F00103002BD9
:10193C0000F08780924B5B6803F00C03042B0CD0F7
:10194C008F4B5B6803F00C03082B12D18C4B5B683C
:10195C0003F48033B3F5803F0BD1894B1B6803F440
:10196C000033002B6CD07B685B68002B68D10123A3
:10197C004CE27B685B68B3F5803F06D1804B1B68FB
:10198C007F4A43F4803313602EE07B685B68002B46
:10199C000CD17B4B1B687A4A23F480331360784B51
:1019AC001B68774A23F4802313601DE07B685B6817
:1019BC00B3F5A02F0CD1724B1B68714A43F48023F2
:1019CC0013606F4B1B686E4A43F4803313600BE05B
:1019DC006B4B1B686A4A23F480331360684B1B689B
:1019EC00674A23F4802313607B685B68002B13D059
:1019FC00FEF730FF386108E0FEF72CFF02463B692A
:101A0C00D31A642B01D9032300E25D4B1B6803F44A
:101A1C000033002BF0D014E0FEF71CFF386108E017
:101A2C00FEF718FF02463B69D31A642B01D9032336
:101A3C00ECE1534B1B6803F40033002BF0D100E0B6
:101A4C0000BF7B681B6803F00203002B63D04C4B78
:101A5C005B6803F00C03002B0BD0494B5B6803F065
:101A6C000C03082B1CD1464B5B6803F48033002B12
:101A7C0016D1434B1B6803F00203002B05D07B6887
:101A8C001B69012B01D00123C0E13D4B1B6823F0E6
:101A9C00F8027B685B69DB00394913430B603AE061
:101AAC007B681B69002B20D0364B01221A60FEF795
:101ABC00D1FE386108E0FEF7CDFE02463B69D31A31
:101ACC00022B01D90323A1E12D4B1B6803F0020368
:101ADC00002BF0D02A4B1B6823F0F8027B685B6963
:101AEC00DB00274913430B6015E0264B00221A60DC
:101AFC00FEF7B0FE386108E0FEF7ACFE02463B692B
:101B0C00D31A022B01D9032380E11D4B1B6803F070
:101B1C000203002BF0D17B681B6803F00803002B39
:101B2C003AD07B689B69002B19D0174B01221A60A5
:101B3C00FEF790FE386108E0FEF78CFE02463B692A
:101B4C00D31A022B01D9032360E10D4B5B6A03F01E
:101B5C000203002BF0D0012000F0BAFA1CE00A4B73
:101B6C0000221A60FEF776FE38610FE0FEF772FE77
:101B7C0002463B69D31A022B08D9032346E100BF66
:101B8C00001002400000424280044242924B5B6AC9
:101B9C0003F00203002BE9D17B681B6803F00403FC
:101BAC00002B00F0A6800023FB758B4BDB6903F048
:101BBC008053002B0DD1884BDB69874A43F080534F
:101BCC00D361854BDB6903F08053BB60BB68012399
:101BDC00FB75824B1B6803F48073002B18D17F4B71
:101BEC001B687E4A43F480731360FEF733FE386142
:101BFC0008E0FEF72FFE02463B69D31A642B01D98D
:101C0C00032303E1754B1B6803F48073002BF0D0A6
:101C1C007B68DB68012B06D16F4B1B6A6E4A43F065
:101C2C00010313622DE07B68DB68002B0CD16A4B3F
:101C3C001B6A694A23F001031362674B1B6A664AED
:101C4C0023F0040313621CE07B68DB68052B0CD1CA
:101C5C00614B1B6A604A43F0040313625E4B1B6AC0
:101C6C005D4A43F0010313620BE05B4B1B6A5A4A5B
:101C7C0023F001031362584B1B6A574A23F00403E9
:101C8C0013627B68DB68002B15D0FEF7E3FD38612F
:101C9C000AE0FEF7DFFD02463B69D31A41F28832B7
:101CAC00934201D90323B1E04B4B1B6A03F00203AF
:101CBC00002BEED014E0FEF7CDFD38610AE0FEF704
:101CCC00C9FD02463B69D31A41F28832934201D9CD
:101CDC0003239BE0404B1B6A03F00203002BEED165
:101CEC00FB7D012B05D13C4BDB693B4A23F0805338
:101CFC00D3617B68DB69002B00F08780364B5B6817
:101D0C0003F00C03082B61D07B68DB69022B46D1F6
:101D1C00334B00221A60FEF79DFD386108E0FEF798
:101D2C0099FD02463B69D31A022B01D903236DE0BE
:101D3C00294B1B6803F00073002BF0D17B681B6AE6
:101D4C00B3F5803F08D1244B5B6823F400327B68E9
:101D5C009B68214913434B601F4B5B6823F474123F
:101D6C007B68196A7B685B6A0B431B4913434B60A6
:101D7C001B4B01221A60FEF76DFD386108E0FEF77F
:101D8C0069FD02463B69D31A022B01D903233DE0BE
:101D9C00114B1B6803F00073002BF0D035E0104B97
:101DAC0000221A60FEF756FD386108E0FEF752FD7E
:101DBC0002463B69D31A022B01D9032326E0064BBA
:101DCC001B6803F00073002BF0D11EE07B68DB690D
:101DDC00012B07D1012319E00010024000700040D4
:101DEC00600042420B4B5B68FB60FB6803F4803283
:101DFC007B681B6A9A4206D1FB6803F470127B68FD
:101E0C005B6A9A4201D0012300E000231846183780
:101E1C00BD4680BD0010024080B584B000AF786034
:101E2C0039607B68002B01D10123D0E06A4B1B6821
:101E3C0003F007033A689A4210D9674B1B6823F0EA
:101E4C00070265493B6813430B60634B1B6803F047
:101E5C0007033A689A4201D00123B8E07B681B68FB
:101E6C0003F00203002B20D07B681B6803F00403F3
:101E7C00002B05D0594B5B68584A43F4E063536020
:101E8C007B681B6803F00803002B05D0534B5B6881
:101E9C00524A43F460535360504B5B6823F0F0029A
:101EAC007B689B684D4913434B607B681B6803F050
:101EBC000103002B40D07B685B68012B07D1474B9B
:101ECC001B6803F40033002B15D101237FE07B68E2
:101EDC005B68022B07D1414B1B6803F00073002B8E
:101EEC0009D1012373E03D4B1B6803F00203002B67
:101EFC0001D101236BE0394B5B6823F003027B6853
:101F0C005B68364913434B60FEF7A4FCF8600AE0AB
:101F1C00FEF7A0FC0246FB68D31A41F288329342CA
:101F2C0001D9032353E02D4B5B6803F00C027B6853
:101F3C005B689B009A42EBD1274B1B6803F00703AD
:101F4C003A689A4210D2244B1B6823F007022249AC
:101F5C003B6813430B60204B1B6803F007033A6884
:101F6C009A4201D0012332E07B681B6803F0040322
:101F7C00002B08D0194B5B6823F4E0627B68DB68AC
:101F8C00164913434B607B681B6803F00803002B56
:101F9C0009D0124B5B6823F460527B681B69DB0031
:101FAC000E4913434B6000F021F802460B4B5B6863
:101FBC001B0903F00F030A49CB5C22FA03F3094A0D
:101FCC001360094B1B681846FEF702FC00231846E9
:101FDC001037BD4680BD00BF0020024000100240FB
:101FEC0088290008040000200800002080B487B075
:101FFC0000AF0023FB600023BB6000237B61002348
:10200C007B6000233B611E4B5B68FB60FB6803F04D
:10201C000C03042B02D0082B03D027E0194B3B6197
:10202C0027E0FB689B0C03F00F03174AD35C7B6023
:10203C00FB6803F48033002B10D0114B5B685B0CF6
:10204C0003F00103114AD35CBB607B680D4A03FBB0
:10205C0002F2BB68B2FBF3F37B6104E07B680C4AD1
:10206C0002FB03F37B617B693B6102E0054B3B6147
:10207C0000BF3B6918461C37BD4680BC704700BF8B
:10208C000010024000127A00A0290008B0290008B4
:10209C0000093D0080B400AF024B1B681846BD46DA
:1020AC0080BC70470400002080B500AFFFF7F2FF42
:1020BC000246054B5B681B0A03F007030349CB5C24
:1020CC0022FA03F3184680BD00100240982900083C
:1020DC0080B485B000AF78600A4B1B680A4AA2FB3B
:1020EC0003235B0A7A6802FB03F3FB6000BFFB6807
:1020FC005A1EFA60002BF9D100BF00BF1437BD4641
:10210C0080BC704704000020D34D621070B50026CF
:10211C000C4D0D4C641BA410A64209D100F022F802
:10212C0000260A4D0A4C641BA410A64205D170BDB2
:10213C0055F8043B98470136EEE755F8043B9847B1
:10214C000136F2E7B4290008B4290008B4290008C4
:10215C00B829000803460244934200D1704703F8A3
:10216C00011BF9E7F8B500BFF8BC08BC9E467047E8
:0C217C00F8B500BFF8BC08BC9E467047D8
:10218800FFFFFFFFFFF9FFFFFFFFBFFFFFFFFFFF9D
:10219800FFFFFFFFFFE9FFFFFFFF17FFFFFFFFFF45
:1021A800FFFFFFFFFFC0FFFFFFFE07FFFFFFFFFF6F
:1021B800FFFFFFFFFF807FFFFFFE01FFFFFFFFFF25
:1021C800FFFFFFFFFF00FFFFFFFC01FFFFFFFFFF17
:1021D800FFFFFFFFFE003FFFFFF8007FFFFFFFFF4D
:1021E800FFFFFFFFFC001FFFFFF4007FFFFFFFFF63
:1021F800FFFFFFFFF8000FFFFFF0001FFFFFFFFFCB
:10220800FFFFFFFFE0001FFFFFF0001FFFFFFFFFC2
:10221800FFFFFFFFF0000FFFFFE0000FFFFFFFFFD2
:10222800FFFFFFFFE00003FFFFC0000FFFFFFFFFFE
:10223800FFFFFFFFC00007FFFFC00007FFFFFFFF12
:10224800FFFFFFFFC00007FFFFC00007FFFFFFFF02
:10225800FFFFFFFFC00001FFFF000003FFFFFFFFBC
:10226800FFFFFFFF800001FFFF800003FFFFFFFF6C
:10227800FFFFFFFF000001FFFF000001FFFFFFFF5E
:10228800FFFFFFFF000000FFFE000001FFFFFFFF50
:10229800FFFFFFFF0000007FFC000000FFFFFFFFC3
:1022A800FFFFFFFE0000003FF80000007FFFFFFF78
:1022B800FFFFFFFC0000003FFC000000FFFFFFFFE6
:1022C800FFFFFFFE0000007FF80000007FFFFFFF18
:1022D800FFFFFFFE000000FFFE000000FFFFFFFF02
:1022E800FFFFFFFC000001FABF0000007FFFFFFFB7
:1022F800FFFFFFFE000003E83F800000FFFFFFFF35
:10230800FFFFFFF8000001A0070000003FFFFFFFEC
:10231800FFFFFFF8000005C0038000001FFFFFFF5C
:10232800FFFFFFF8000007C007E000003FFFFFFFC6
:10233800FFFFFFF80000078001C000003FFFFFFF1C
:10234800FFFFFFFD5555570001D555553FFFFFFFCE
:10235800FFFFFFFFFFFFFF0001FFFFFFFFFFFFFF82
:10236800FFFFFFFFFFFFFF8003FFFFFFFFFFFFFFF0
:10237800FFFFFFFFFFFFFF0001FFFFFFFFFFFFFF62
:10238800FFFFFFFFFFFFFFC007FFFFFFFFFFFFFF8C
:10239800FFFFFFFFFFFFFFC007FFFFFFFFFFFFFF7C
:1023A800FFFFFFFFFFFFFFC007FFFFFFFFFFFFFF6C
:1023B800FFFFFFFFFFFFFFF83FFFFFFFFFFFFFFFEC
:1023C800FFFFFFFFFFFFFFFD7FFFFFFFFFFFFFFF97
:1023D800FFFFFFFFFFFFFFFFFFFFFFFFFFFFFFFF05
:1023E800FFFFFFFFFFFFFFE7C7FFFFFFFFFFFFFF45
:1023F800FFFFFFFFFFFFFF87C7FFFFFFFFFFFFFF95
:10240800FFFFFFFFFFFFFF8001FFFFFFFFFFFFFF51
:10241800FFFFFFFFFFFFFE0000FFFFFFFFFFFFFFC3
:10242800FFFFFFFFFFFFFE0000FFFFFFFFFFFFFFB3
:10243800FFFFFFFFFFFFFE00007FFFFFFFFFFFFF23
:10244800FFFFFFFFFFFFFC0000FFFFFFFFFFFFFF95
:10245800FFFFFFFFFFFFF800003FFFFFFFFFFFFF49
:10246800FFFFFFFFFFFFF800003FFFFFFFFFFFFF39
:10247800FFFFFFFFFFFFF800001FFFFFFFFFFFFF49
:10248800FFFFFFFFFFFFF000001FFFFFFFFFFFFF41
:10249800FFFFFFFFFFFFE000000FFFFFFFFFFFFF51
:1024A800FFFFFFFFFFFFF000000FFFFFFFFFFFFF31
:1024B800FFFFFFFFFFFFC0000007FFFFFFFFFFFF59
:1024C800FFFFFFFFFFFFC0000007FFFFFFFFFFFF49
:1024D800FFFFFFFFFFFFC0000007FFFFFFFFFFFF39
:1024E800FFFFFFFFFFFF80000003FFFFFFFFFFFF6D
:1024F800FFFFFFFFFFFF00000001FFFFFFFFFFFFDF
:10250800FFFFFFFFFFFF80000001FFFFFFFFFFFF4E
:10251800FFFFFFFFFFFE00000000FFFFFFFFFFFFC0
:10252800FFFFFFFFFFFE00000000FFFFFFFFFFFFB0
:10253800FFFFFFFFFFFF00000001FFFFFFFFFFFF9E
:10254800FFFFFFFFFFFFA800002BFFFFFFFFFFFFBC
:10255800FFFFFFFFFFFFF800003FFFFFFFFFFFFF48
:10256800FFFFFFFFFFFFFFE01FFFFFFFFFFFFFFF72
:10257800FFFFFFFFFFFFFFF00FFFFFFFFFFFFFFF62
:10258800FFFFFFFFFFFFFFF00FFFFFFFFFFFFFFF52
:10259800FFFFFFFFFFFFFFF807FFFFFFFFFFFFFF42
:1025A800FFFFFFFFFFFFFC00001FFFFFFFFFFFFF14
:1025B800FFFFFFFFFFFFD4000015FFFFFFFFFFFF36
:1025C800FFFFFFFFFFFF80000000FFFFFFFFFFFF8F
:1025D800FFFFFFFFFFFF000000007FFFFFFFFFFF7F
:1025E800FFFFFFFFFFFF000000007FFFFFFFFFFF6F
:1025F800FFFFFFFFFFFF80000001FFFFFFFFFFFF5E
:10260800FFFFFFFFFFFF80000000FFFFFFFFFFFF4E
:10261800FFFFFFFFFFFFC0000001FFFFFFFFFFFFFD
:10262800FFFFFFFFFFFFE0000003FFFFFFFFFFFFCB
:10263800FFFFFFFFFFFFE0000003FFFFFFFFFFFFBB
:10264800FFFFFFFFFFFFE0000003FFFFFFFFFFFFAB
:10265800FFFFFFFFFFFFF000000FFFFFFFFFFFFF7F
:10266800FFFFFFFFFFFFF0000007FFFFFFFFFFFF77
:10267800FFFFFFFFFFFFF800000FFFFFFFFFFFFF57
:10268800FFFFFFFFFFFFF800001FFFFFFFFFFFFF37
:10269800FFFFFFFFFFFFFC00001FFFFFFFFFFFFF23
:1026A800FFFFFFFFFFFFFC00001FFFFFFFFFFFFF13
:1026B800FFFFFFFFFFFFFF00003FFFFFFFFFFFFFE0
:1026C800FFFFFFFFFFFFFE00007FFFFFFFFFFFFF91
:1026D800FFFFFFFFFFFFFF00007FFFFFFFFFFFFF80
:1026E800FFFFFFFFFFFFFF00007FFFFFFFFFFFFF70
:1026F800FFFFFFFFFFFFFF8001FFFFFFFFFFFFFF5F
:10270800FFFFFFFFFFFFFFE3E1FFFFFFFFFFFFFF0B
:10271800FFFFFFFFFFFFFFE3E7FFFFFFFFFFFFFFF5
:10272800FFFFFFFFFFFFFFFFFFFFFFFFFFFFFFFFB1
:10273800FFFFFFFFFFFFFFFEBFFFFFFFFFFFFFFFE2
:10274800FFFFFFFFFFFFFFFC1FFFFFFFFFFFFFFF74
:10275800FFFFFFFFFFFFFFE003FFFFFFFFFFFFFF9C
:10276800FFFFFFFFFFFFFFE003FFFFFFFFFFFFFF8C
:10277800FFFFFFFFFFFFFFE003FFFFFFFFFFFFFF7C
:10278800FFFFFFFFFFFFFF8000FFFFFFFFFFFFFFCF
:10279800FFFFFFFFFFFFFFC001FFFFFFFFFFFFFF7E
:1027A800FFFFFFFFFFFFFF8000FFFFFFFFFFFFFFAF
:1027B800FFFFFFFCAAAAAB8000EAAAAABFFFFFFF9F
:1027C800FFFFFFFC0000038001E000001FFFFFFF88
:1027D800FFFFFFFC000007E003E000001FFFFFFF12
:1027E800FFFFFFF8000001C003A000001FFFFFFF6C
:1027F800FFFFFFFC000000E0058000001FFFFFFF57
:10280800FFFFFFFF000001FC17C000007FFFFFFF74
:10281800FFFFFFFE000000FD5F8000003FFFFFFF9D
:10282800FFFFFFFF0000007FFF0000007FFFFFFFAA
:10283800FFFFFFFE0000001FFE0000007FFFFFFFFC
:10284800FFFFFFFF0000003FFC0000003FFFFFFF0D
:10285800FFFFFFFE0000001FFC0000007FFFFFFFDE
:10286800FFFFFFFF0000003FFE000000FFFFFFFF2B
:10287800FFFFFFFF8000007FFF000000FFFFFFFF5A
:10288800FFFFFFFF800000FFFF800000FFFFFFFF4A
:10289800FFFFFFFFC00001FFFF800001FFFFFFFFF8
:1028A800FFFFFFFFC00000FFFF800003FFFFFFFFE7
:1028B800FFFFFFFFE00003FFFFE00003FFFFFFFF54
:1028C800FFFFFFFFE00003FFFFE00003FFFFFFFF44
:1028D800FFFFFFFFF00003FFFFC00007FFFFFFFF40
:1028E800FFFFFFFFF00007FFFFF0000FFFFFFFFFF4
:1028F800FFFFFFFFF8000FFFFFF80007FFFFFFFFD4
:10290800FFFFFFFFF8000FFFFFF0001FFFFFFFFFB3
:10291800FFFFFFFFFE002FFFFFF8003FFFFFFFFF55
:10292800FFFFFFFFFE001FFFFFFC007FFFFFFFFF11
:10293800FFFFFFFFFF803FFFFFFF00FFFFFFFFFFDD
:10294800FFFFFFFFFF807FFFFFFE01FFFFFFFFFF8D
:10295800FFFFFFFFFFE07FFFFFFF03FFFFFFFFFF1A
:10296800FFFFFFFFFFE8FFFFFFFF97FFFFFFFFFFEE
:10297800FFFFFFFFFFFDFFFFFFFF9FFFFFFFFFFFC1
:102988000000000000000000010203040607080917
:1029980000000000010203040203040506070809F9
:0C29A8000A0B0C0D0E0F101001020000B5
:0429B40031010008E5
:0429B8000D01000805
:1029BC00020000000024F4001000000001000000E0
:040000050800076583
:00000001FF
